{
  "_format": "hh-sol-artifact-1",
  "contractName": "dex",
  "sourceName": "contracts/dex.sol",
  "abi": [
    {
      "inputs": [
        {
          "internalType": "address",
          "name": "_tokenA",
          "type": "address"
        },
        {
          "internalType": "address",
          "name": "_tokenB",
          "type": "address"
        }
      ],
      "stateMutability": "nonpayable",
      "type": "constructor"
    },
    {
      "inputs": [
        {
          "internalType": "address",
          "name": "tokenIn",
          "type": "address"
        },
        {
          "internalType": "address",
          "name": "tokenOut",
          "type": "address"
        },
        {
          "internalType": "uint256",
          "name": "fee",
          "type": "uint256"
        },
        {
          "internalType": "address",
          "name": "recepient",
          "type": "address"
        },
        {
          "internalType": "uint256",
          "name": "amountIn",
          "type": "uint256"
        },
        {
          "internalType": "uint256",
          "name": "min",
          "type": "uint256"
        },
        {
          "internalType": "uint256",
          "name": "max",
          "type": "uint256"
        }
      ],
      "name": "getPrice",
      "outputs": [
        {
          "internalType": "uint256",
          "name": "",
          "type": "uint256"
        }
      ],
      "stateMutability": "nonpayable",
      "type": "function"
    },
    {
      "inputs": [
        {
          "internalType": "address",
          "name": "input",
          "type": "address"
        },
        {
          "internalType": "uint256",
          "name": "amount",
          "type": "uint256"
        },
        {
          "internalType": "uint256",
          "name": "poolFee",
          "type": "uint256"
        },
        {
          "internalType": "address",
          "name": "inputAddress",
          "type": "address"
        },
        {
          "internalType": "uint256",
          "name": "no1",
          "type": "uint256"
        },
        {
          "internalType": "uint256",
          "name": "no2",
          "type": "uint256"
        }
      ],
      "name": "swapToken",
      "outputs": [
        {
          "internalType": "uint256",
          "name": "",
          "type": "uint256"
        }
      ],
      "stateMutability": "nonpayable",
      "type": "function"
    },
    {
      "inputs": [],
      "name": "tokenA",
      "outputs": [
        {
          "internalType": "contract IERC20",
          "name": "",
          "type": "address"
        }
      ],
      "stateMutability": "view",
      "type": "function"
    },
    {
      "inputs": [],
      "name": "tokenB",
      "outputs": [
        {
          "internalType": "contract IERC20",
          "name": "",
          "type": "address"
        }
      ],
      "stateMutability": "view",
      "type": "function"
    }
  ],
  "bytecode": "0x608060405234801561001057600080fd5b50604051610e61380380610e618339818101604052810190610032919061011d565b816000806101000a81548173ffffffffffffffffffffffffffffffffffffffff021916908373ffffffffffffffffffffffffffffffffffffffff16021790555080600160006101000a81548173ffffffffffffffffffffffffffffffffffffffff021916908373ffffffffffffffffffffffffffffffffffffffff160217905550505061015d565b600080fd5b600073ffffffffffffffffffffffffffffffffffffffff82169050919050565b60006100ea826100bf565b9050919050565b6100fa816100df565b811461010557600080fd5b50565b600081519050610117816100f1565b92915050565b60008060408385031215610134576101336100ba565b5b600061014285828601610108565b925050602061015385828601610108565b9150509250929050565b610cf58061016c6000396000f3fe608060405234801561001057600080fd5b506004361061004c5760003560e01c80630fc63d10146100515780635f64b55b1461006f578063e2a072a21461008d578063f8f233ba146100bd575b600080fd5b6100596100ed565b6040516100669190610794565b60405180910390f35b610077610111565b6040516100849190610794565b60405180910390f35b6100a760048036038101906100a29190610828565b610137565b6040516100b491906108c4565b60405180910390f35b6100d760048036038101906100d291906108df565b610705565b6040516100e491906108c4565b60405180910390f35b60008054906101000a900473ffffffffffffffffffffffffffffffffffffffff1681565b600160009054906101000a900473ffffffffffffffffffffffffffffffffffffffff1681565b600080861161017b576040517f08c379a0000000000000000000000000000000000000000000000000000000008152600401610172906109de565b60405180910390fd5b60008054906101000a900473ffffffffffffffffffffffffffffffffffffffff1673ffffffffffffffffffffffffffffffffffffffff168773ffffffffffffffffffffffffffffffffffffffff1614806102225750600160009054906101000a900473ffffffffffffffffffffffffffffffffffffffff1673ffffffffffffffffffffffffffffffffffffffff168773ffffffffffffffffffffffffffffffffffffffff16145b610261576040517f08c379a000000000000000000000000000000000000000000000000000000000815260040161025890610a4a565b60405180910390fd5b60008054906101000a900473ffffffffffffffffffffffffffffffffffffffff1673ffffffffffffffffffffffffffffffffffffffff168773ffffffffffffffffffffffffffffffffffffffff16036104d95785600160009054906101000a900473ffffffffffffffffffffffffffffffffffffffff1673ffffffffffffffffffffffffffffffffffffffff166370a08231306040518263ffffffff1660e01b81526004016103109190610a79565b602060405180830381865afa15801561032d573d6000803e3d6000fd5b505050506040513d601f19601f820116820180604052508101906103519190610aa9565b1015610392576040517f08c379a000000000000000000000000000000000000000000000000000000000815260040161038990610b48565b60405180910390fd5b60008054906101000a900473ffffffffffffffffffffffffffffffffffffffff1673ffffffffffffffffffffffffffffffffffffffff166323b872dd3330896040518463ffffffff1660e01b81526004016103ef93929190610b68565b6020604051808303816000875af115801561040e573d6000803e3d6000fd5b505050506040513d601f19601f820116820180604052508101906104329190610bd7565b50600160009054906101000a900473ffffffffffffffffffffffffffffffffffffffff1673ffffffffffffffffffffffffffffffffffffffff1663a9059cbb33886040518363ffffffff1660e01b8152600401610490929190610c04565b6020604051808303816000875af11580156104af573d6000803e3d6000fd5b505050506040513d601f19601f820116820180604052508101906104d39190610bd7565b506106f8565b8560008054906101000a900473ffffffffffffffffffffffffffffffffffffffff1673ffffffffffffffffffffffffffffffffffffffff166370a08231306040518263ffffffff1660e01b81526004016105339190610a79565b602060405180830381865afa158015610550573d6000803e3d6000fd5b505050506040513d601f19601f820116820180604052508101906105749190610aa9565b10156105b5576040517f08c379a00000000000000000000000000000000000000000000000000000000081526004016105ac90610c9f565b60405180910390fd5b600160009054906101000a900473ffffffffffffffffffffffffffffffffffffffff1673ffffffffffffffffffffffffffffffffffffffff166323b872dd3330896040518463ffffffff1660e01b815260040161061493929190610b68565b6020604051808303816000875af1158015610633573d6000803e3d6000fd5b505050506040513d601f19601f820116820180604052508101906106579190610bd7565b5060008054906101000a900473ffffffffffffffffffffffffffffffffffffffff1673ffffffffffffffffffffffffffffffffffffffff1663a9059cbb33886040518363ffffffff1660e01b81526004016106b3929190610c04565b6020604051808303816000875af11580156106d2573d6000803e3d6000fd5b505050506040513d601f19601f820116820180604052508101906106f69190610bd7565b505b8590509695505050505050565b6000839050979650505050505050565b600073ffffffffffffffffffffffffffffffffffffffff82169050919050565b6000819050919050565b600061075a61075561075084610715565b610735565b610715565b9050919050565b600061076c8261073f565b9050919050565b600061077e82610761565b9050919050565b61078e81610773565b82525050565b60006020820190506107a96000830184610785565b92915050565b600080fd5b60006107bf82610715565b9050919050565b6107cf816107b4565b81146107da57600080fd5b50565b6000813590506107ec816107c6565b92915050565b6000819050919050565b610805816107f2565b811461081057600080fd5b50565b600081359050610822816107fc565b92915050565b60008060008060008060c08789031215610845576108446107af565b5b600061085389828a016107dd565b965050602061086489828a01610813565b955050604061087589828a01610813565b945050606061088689828a016107dd565b935050608061089789828a01610813565b92505060a06108a889828a01610813565b9150509295509295509295565b6108be816107f2565b82525050565b60006020820190506108d960008301846108b5565b92915050565b600080600080600080600060e0888a0312156108fe576108fd6107af565b5b600061090c8a828b016107dd565b975050602061091d8a828b016107dd565b965050604061092e8a828b01610813565b955050606061093f8a828b016107dd565b94505060806109508a828b01610813565b93505060a06109618a828b01610813565b92505060c06109728a828b01610813565b91505092959891949750929550565b600082825260208201905092915050565b7f416d6f756e74206d7573742062652067726561746572207468616e207a65726f600082015250565b60006109c8602083610981565b91506109d382610992565b602082019050919050565b600060208201905081810360008301526109f7816109bb565b9050919050565b7f496e76616c696420746f6b656e20616464726573730000000000000000000000600082015250565b6000610a34601583610981565b9150610a3f826109fe565b602082019050919050565b60006020820190508181036000830152610a6381610a27565b9050919050565b610a73816107b4565b82525050565b6000602082019050610a8e6000830184610a6a565b92915050565b600081519050610aa3816107fc565b92915050565b600060208284031215610abf57610abe6107af565b5b6000610acd84828501610a94565b91505092915050565b7f4e6f7420656e6f75676820546f6b656e4220696e2074686520636f6e7472616360008201527f7400000000000000000000000000000000000000000000000000000000000000602082015250565b6000610b32602183610981565b9150610b3d82610ad6565b604082019050919050565b60006020820190508181036000830152610b6181610b25565b9050919050565b6000606082019050610b7d6000830186610a6a565b610b8a6020830185610a6a565b610b9760408301846108b5565b949350505050565b60008115159050919050565b610bb481610b9f565b8114610bbf57600080fd5b50565b600081519050610bd181610bab565b92915050565b600060208284031215610bed57610bec6107af565b5b6000610bfb84828501610bc2565b91505092915050565b6000604082019050610c196000830185610a6a565b610c2660208301846108b5565b9392505050565b7f4e6f7420656e6f75676820546f6b656e4120696e2074686520636f6e7472616360008201527f7400000000000000000000000000000000000000000000000000000000000000602082015250565b6000610c89602183610981565b9150610c9482610c2d565b604082019050919050565b60006020820190508181036000830152610cb881610c7c565b905091905056fea264697066735822122097a13e1be4a10b306d850a59ccf66e5f85ed34147b6bc9f8af9921969b1645ae64736f6c634300081b0033",
  "linkReferences": {},
  "deployedLinkReferences": {}
}