{
  "_format": "hh-sol-artifact-1",
  "contractName": "Orderbook",
  "sourceName": "contracts/orderbook.sol",
  "abi": [
    {
      "inputs": [],
      "name": "amountOfUsers",
      "outputs": [
        {
          "internalType": "uint256",
          "name": "",
          "type": "uint256"
        }
      ],
      "stateMutability": "view",
      "type": "function"
    },
    {
      "inputs": [
        {
          "internalType": "uint256",
          "name": "amountIn",
          "type": "uint256"
        },
        {
          "internalType": "address",
          "name": "dexAddr",
          "type": "address"
        },
        {
          "internalType": "uint256",
          "name": "split",
          "type": "uint256"
        }
      ],
      "name": "createOrder",
      "outputs": [
        {
          "internalType": "address",
          "name": "",
          "type": "address"
        }
      ],
      "stateMutability": "nonpayable",
      "type": "function"
    },
    {
      "inputs": [
        {
          "internalType": "address",
          "name": "user",
          "type": "address"
        }
      ],
      "name": "getOrderList",
      "outputs": [
        {
          "internalType": "address[]",
          "name": "",
          "type": "address[]"
        }
      ],
      "stateMutability": "view",
      "type": "function"
    },
    {
      "inputs": [
        {
          "internalType": "address",
          "name": "",
          "type": "address"
        }
      ],
      "name": "userOrders",
      "outputs": [
        {
          "internalType": "uint256",
          "name": "amountOfOrders",
          "type": "uint256"
        }
      ],
      "stateMutability": "view",
      "type": "function"
    },
    {
      "inputs": [
        {
          "internalType": "uint256",
          "name": "",
          "type": "uint256"
        }
      ],
      "name": "users",
      "outputs": [
        {
          "internalType": "address",
          "name": "",
          "type": "address"
        }
      ],
      "stateMutability": "view",
      "type": "function"
    }
  ],
  "bytecode": "0x6080604052348015600f57600080fd5b50611cc48061001f6000396000f3fe608060405234801561001057600080fd5b50600436106100575760003560e01c8063053695ba1461005c578063365b98b21461008c578063964d23a1146100bc578063e1ee4758146100da578063e2b91afb1461010a575b600080fd5b610076600480360381019061007191906104a0565b61013a565b60405161008391906104e6565b60405180910390f35b6100a660048036038101906100a1919061052d565b610158565b6040516100b39190610569565b60405180910390f35b6100c4610197565b6040516100d191906104e6565b60405180910390f35b6100f460048036038101906100ef91906104a0565b61019d565b6040516101019190610642565b60405180910390f35b610124600480360381019061011f9190610664565b61026c565b6040516101319190610569565b60405180910390f35b60006020528060005260406000206000915090508060000154905081565b6001818154811061016857600080fd5b906000526020600020016000915054906101000a900473ffffffffffffffffffffffffffffffffffffffff1681565b60025481565b60606000808373ffffffffffffffffffffffffffffffffffffffff1673ffffffffffffffffffffffffffffffffffffffff16815260200190815260200160002060010180548060200260200160405190810160405280929190818152602001828054801561026057602002820191906000526020600020905b8160009054906101000a900473ffffffffffffffffffffffffffffffffffffffff1673ffffffffffffffffffffffffffffffffffffffff1681526020019060010190808311610216575b50505050509050919050565b600080838386873360405161028090610430565b61028e9594939291906106b7565b604051809103906000f0801580156102aa573d6000803e3d6000fd5b5090506000803373ffffffffffffffffffffffffffffffffffffffff1673ffffffffffffffffffffffffffffffffffffffff168152602001908152602001600020600101819080600181540180825580915050600190039060005260206000200160009091909190916101000a81548173ffffffffffffffffffffffffffffffffffffffff021916908373ffffffffffffffffffffffffffffffffffffffff16021790555060016000803373ffffffffffffffffffffffffffffffffffffffff1673ffffffffffffffffffffffffffffffffffffffff16815260200190815260200160002060000160008282546103a19190610739565b925050819055506001339080600181540180825580915050600190039060005260206000200160009091909190916101000a81548173ffffffffffffffffffffffffffffffffffffffff021916908373ffffffffffffffffffffffffffffffffffffffff16021790555060016002600082825461041e9190610739565b92505081905550809150509392505050565b6115218061076e83390190565b600080fd5b600073ffffffffffffffffffffffffffffffffffffffff82169050919050565b600061046d82610442565b9050919050565b61047d81610462565b811461048857600080fd5b50565b60008135905061049a81610474565b92915050565b6000602082840312156104b6576104b561043d565b5b60006104c48482850161048b565b91505092915050565b6000819050919050565b6104e0816104cd565b82525050565b60006020820190506104fb60008301846104d7565b92915050565b61050a816104cd565b811461051557600080fd5b50565b60008135905061052781610501565b92915050565b6000602082840312156105435761054261043d565b5b600061055184828501610518565b91505092915050565b61056381610462565b82525050565b600060208201905061057e600083018461055a565b92915050565b600081519050919050565b600082825260208201905092915050565b6000819050602082019050919050565b6105b981610462565b82525050565b60006105cb83836105b0565b60208301905092915050565b6000602082019050919050565b60006105ef82610584565b6105f9818561058f565b9350610604836105a0565b8060005b8381101561063557815161061c88826105bf565b9750610627836105d7565b925050600181019050610608565b5085935050505092915050565b6000602082019050818103600083015261065c81846105e4565b905092915050565b60008060006060848603121561067d5761067c61043d565b5b600061068b86828701610518565b935050602061069c8682870161048b565b92505060406106ad86828701610518565b9150509250925092565b600060a0820190506106cc600083018861055a565b6106d960208301876104d7565b6106e660408301866104d7565b6106f360608301856104d7565b610700608083018461055a565b9695505050505050565b7f4e487b7100000000000000000000000000000000000000000000000000000000600052601160045260246000fd5b6000610744826104cd565b915061074f836104cd565b92508282019050808211156107675761076661070a565b5b9291505056fe60c06040526000600360006101000a81548160ff02191690831515021790555034801561002b57600080fd5b50604051611521380380611521833981810160405281019061004d91906102fa565b80600560006101000a81548173ffffffffffffffffffffffffffffffffffffffff021916908373ffffffffffffffffffffffffffffffffffffffff1602179055508260028190555083836100a191906103a4565b60008190555083826100b391906103a4565b6001819055508473ffffffffffffffffffffffffffffffffffffffff1660808173ffffffffffffffffffffffffffffffffffffffff16815250508360a0818152505060805173ffffffffffffffffffffffffffffffffffffffff16630fc63d106040518163ffffffff1660e01b8152600401602060405180830381865afa158015610142573d6000803e3d6000fd5b505050506040513d601f19601f820116820180604052508101906101669190610413565b600360016101000a81548173ffffffffffffffffffffffffffffffffffffffff021916908373ffffffffffffffffffffffffffffffffffffffff16021790555060805173ffffffffffffffffffffffffffffffffffffffff16635f64b55b6040518163ffffffff1660e01b8152600401602060405180830381865afa1580156101f3573d6000803e3d6000fd5b505050506040513d601f19601f820116820180604052508101906102179190610413565b600460006101000a81548173ffffffffffffffffffffffffffffffffffffffff021916908373ffffffffffffffffffffffffffffffffffffffff1602179055505050505050610440565b600080fd5b600073ffffffffffffffffffffffffffffffffffffffff82169050919050565b600061029182610266565b9050919050565b6102a181610286565b81146102ac57600080fd5b50565b6000815190506102be81610298565b92915050565b6000819050919050565b6102d7816102c4565b81146102e257600080fd5b50565b6000815190506102f4816102ce565b92915050565b600080600080600060a0868803121561031657610315610261565b5b6000610324888289016102af565b9550506020610335888289016102e5565b9450506040610346888289016102e5565b9350506060610357888289016102e5565b9250506080610368888289016102af565b9150509295509295909350565b7f4e487b7100000000000000000000000000000000000000000000000000000000600052601260045260246000fd5b60006103af826102c4565b91506103ba836102c4565b9250826103ca576103c9610375565b5b828204905092915050565b60006103e082610286565b9050919050565b6103f0816103d5565b81146103fb57600080fd5b50565b60008151905061040d816103e7565b92915050565b60006020828403121561042957610428610261565b5b6000610437848285016103fe565b91505092915050565b60805160a0516110a0610481600039600061063a0152600081816102cc015281816102f501528181610418015281816104c801526105d701526110a06000f3fe608060405234801561001057600080fd5b50600436106100a95760003560e01c80638fc3047d116100715780638fc3047d14610144578063c31c9c0714610162578063e221c87114610180578063e2d46f981461019e578063e795ed47146101bc578063f7654176146101da576100a9565b8063089fe6aa146100ae57806347eb41f0146100cc5780635ee04d78146100ea5780636bed55a6146101085780638da7223114610126575b600080fd5b6100b66101f8565b6040516100c39190610a7c565b60405180910390f35b6100d46101fe565b6040516100e19190610ab0565b60405180910390f35b6100f2610204565b6040516100ff9190610b0c565b60405180910390f35b61011061022a565b60405161011d9190610ab0565b60405180910390f35b61012e610230565b60405161013b9190610ab0565b60405180910390f35b61014c6104c3565b6040516101599190610b42565b60405180910390f35b61016a6105d5565b6040516101779190610bbc565b60405180910390f35b6101886105f9565b6040516101959190610ab0565b60405180910390f35b6101a66105ff565b6040516101b39190610b42565b60405180910390f35b6101c4610612565b6040516101d19190610b0c565b60405180910390f35b6101e2610638565b6040516101ef9190610ab0565b60405180910390f35b610bb881565b60015481565b600360019054906101000a900473ffffffffffffffffffffffffffffffffffffffff1681565b60005481565b60008054600254106104a05760005460025461024c9190610c06565b6002819055506102a4600360019054906101000a900473ffffffffffffffffffffffffffffffffffffffff16600560009054906101000a900473ffffffffffffffffffffffffffffffffffffffff163060005461065c565b6102f3600360019054906101000a900473ffffffffffffffffffffffffffffffffffffffff167f00000000000000000000000000000000000000000000000000000000000000006000546107b4565b7f000000000000000000000000000000000000000000000000000000000000000073ffffffffffffffffffffffffffffffffffffffff1663e2a072a2600360019054906101000a900473ffffffffffffffffffffffffffffffffffffffff16600054610bb8600560009054906101000a900473ffffffffffffffffffffffffffffffffffffffff1660015460006040518763ffffffff1660e01b81526004016103a196959493929190610ca6565b6020604051808303816000875af11580156103c0573d6000803e3d6000fd5b505050506040513d601f19601f820116820180604052508101906103e49190610d38565b905060005481101561049b5761043e600360019054906101000a900473ffffffffffffffffffffffffffffffffffffffff167f000000000000000000000000000000000000000000000000000000000000000060006107b4565b61049a600360019054906101000a900473ffffffffffffffffffffffffffffffffffffffff16600560009054906101000a900473ffffffffffffffffffffffffffffffffffffffff16836000546104959190610c06565b610909565b5b6104c0565b6001600360006101000a81548160ff021916908315150217905550600090505b90565b6000807f000000000000000000000000000000000000000000000000000000000000000073ffffffffffffffffffffffffffffffffffffffff1663f8f233ba600360019054906101000a900473ffffffffffffffffffffffffffffffffffffffff16600460009054906101000a900473ffffffffffffffffffffffffffffffffffffffff16610bb8306000546000806040518863ffffffff1660e01b81526004016105749796959493929190610d65565b6020604051808303816000875af1158015610593573d6000803e3d6000fd5b505050506040513d601f19601f820116820180604052508101906105b79190610d38565b905060015481106105cc5760019150506105d2565b60009150505b90565b7f000000000000000000000000000000000000000000000000000000000000000081565b60025481565b600360009054906101000a900460ff1681565b600460009054906101000a900473ffffffffffffffffffffffffffffffffffffffff1681565b7f000000000000000000000000000000000000000000000000000000000000000081565b6000808573ffffffffffffffffffffffffffffffffffffffff166323b872dd60e01b86868660405160240161069393929190610dd4565b604051602081830303815290604052907bffffffffffffffffffffffffffffffffffffffffffffffffffffffff19166020820180517bffffffffffffffffffffffffffffffffffffffffffffffffffffffff83818316178352505050506040516106fd9190610e7c565b6000604051808303816000865af19150503d806000811461073a576040519150601f19603f3d011682016040523d82523d6000602084013e61073f565b606091505b509150915081801561076d575060008151148061076c57508080602001905181019061076b9190610ebf565b5b5b6107ac576040517f08c379a00000000000000000000000000000000000000000000000000000000081526004016107a390610f49565b60405180910390fd5b505050505050565b6000808473ffffffffffffffffffffffffffffffffffffffff1663095ea7b360e01b85856040516024016107e9929190610f69565b604051602081830303815290604052907bffffffffffffffffffffffffffffffffffffffffffffffffffffffff19166020820180517bffffffffffffffffffffffffffffffffffffffffffffffffffffffff83818316178352505050506040516108539190610e7c565b6000604051808303816000865af19150503d8060008114610890576040519150601f19603f3d011682016040523d82523d6000602084013e610895565b606091505b50915091508180156108c357506000815114806108c25750808060200190518101906108c19190610ebf565b5b5b610902576040517f08c379a00000000000000000000000000000000000000000000000000000000081526004016108f990610fde565b60405180910390fd5b5050505050565b6000808473ffffffffffffffffffffffffffffffffffffffff1663a9059cbb60e01b858560405160240161093e929190610f69565b604051602081830303815290604052907bffffffffffffffffffffffffffffffffffffffffffffffffffffffff19166020820180517bffffffffffffffffffffffffffffffffffffffffffffffffffffffff83818316178352505050506040516109a89190610e7c565b6000604051808303816000865af19150503d80600081146109e5576040519150601f19603f3d011682016040523d82523d6000602084013e6109ea565b606091505b5091509150818015610a185750600081511480610a17575080806020019051810190610a169190610ebf565b5b5b610a57576040517f08c379a0000000000000000000000000000000000000000000000000000000008152600401610a4e9061104a565b60405180910390fd5b5050505050565b600062ffffff82169050919050565b610a7681610a5e565b82525050565b6000602082019050610a916000830184610a6d565b92915050565b6000819050919050565b610aaa81610a97565b82525050565b6000602082019050610ac56000830184610aa1565b92915050565b600073ffffffffffffffffffffffffffffffffffffffff82169050919050565b6000610af682610acb565b9050919050565b610b0681610aeb565b82525050565b6000602082019050610b216000830184610afd565b92915050565b60008115159050919050565b610b3c81610b27565b82525050565b6000602082019050610b576000830184610b33565b92915050565b6000819050919050565b6000610b82610b7d610b7884610acb565b610b5d565b610acb565b9050919050565b6000610b9482610b67565b9050919050565b6000610ba682610b89565b9050919050565b610bb681610b9b565b82525050565b6000602082019050610bd16000830184610bad565b92915050565b7f4e487b7100000000000000000000000000000000000000000000000000000000600052601160045260246000fd5b6000610c1182610a97565b9150610c1c83610a97565b9250828203905081811115610c3457610c33610bd7565b5b92915050565b6000610c55610c50610c4b84610a5e565b610b5d565b610a97565b9050919050565b610c6581610c3a565b82525050565b6000819050919050565b6000610c90610c8b610c8684610c6b565b610b5d565b610a97565b9050919050565b610ca081610c75565b82525050565b600060c082019050610cbb6000830189610afd565b610cc86020830188610aa1565b610cd56040830187610c5c565b610ce26060830186610afd565b610cef6080830185610aa1565b610cfc60a0830184610c97565b979650505050505050565b600080fd5b610d1581610a97565b8114610d2057600080fd5b50565b600081519050610d3281610d0c565b92915050565b600060208284031215610d4e57610d4d610d07565b5b6000610d5c84828501610d23565b91505092915050565b600060e082019050610d7a600083018a610afd565b610d876020830189610afd565b610d946040830188610c5c565b610da16060830187610afd565b610dae6080830186610aa1565b610dbb60a0830185610c97565b610dc860c0830184610c97565b98975050505050505050565b6000606082019050610de96000830186610afd565b610df66020830185610afd565b610e036040830184610aa1565b949350505050565b600081519050919050565b600081905092915050565b60005b83811015610e3f578082015181840152602081019050610e24565b60008484015250505050565b6000610e5682610e0b565b610e608185610e16565b9350610e70818560208601610e21565b80840191505092915050565b6000610e888284610e4b565b915081905092915050565b610e9c81610b27565b8114610ea757600080fd5b50565b600081519050610eb981610e93565b92915050565b600060208284031215610ed557610ed4610d07565b5b6000610ee384828501610eaa565b91505092915050565b600082825260208201905092915050565b7f5354460000000000000000000000000000000000000000000000000000000000600082015250565b6000610f33600383610eec565b9150610f3e82610efd565b602082019050919050565b60006020820190508181036000830152610f6281610f26565b9050919050565b6000604082019050610f7e6000830185610afd565b610f8b6020830184610aa1565b9392505050565b7f5341000000000000000000000000000000000000000000000000000000000000600082015250565b6000610fc8600283610eec565b9150610fd382610f92565b602082019050919050565b60006020820190508181036000830152610ff781610fbb565b9050919050565b7f5354000000000000000000000000000000000000000000000000000000000000600082015250565b6000611034600283610eec565b915061103f82610ffe565b602082019050919050565b6000602082019050818103600083015261106381611027565b905091905056fea2646970667358221220bcce72b755088eb654ae8ee109cd396dc5c418993ae30f0d20982c8935b8230c64736f6c634300081b0033a26469706673582212207a73c10041308470969536e46fb77e6817c999467bd05380626133b74829690164736f6c634300081b0033",
  "linkReferences": {},
  "deployedLinkReferences": {}
}